:1000000089C0FEC1A2C0A1C0A0C043C39EC09DC004
:1000100031C39BC09AC099C098C097C096C095C084
:1000200094C093C092C004030904240374006800C0
:100030006F006D006100730070006600650069006C
:100040006600650072002E006E00650074003403C7
:10005000500050004D0032005500530042002D006A
:10006000740068006F006D0061007300700066002E
:10007000650069006600650072002E006E00650074
:1000800074002C03740068006F006D006100730041
:1000900070006600650069006600650072002E0051
:1000A0006E00650074003A0030003000310012012B
:1000B000100100000008C016DB2700010102030147
:1000C00009022200010100800A0904000001030066
:1000D0000000092101010001223200070581030807
:1000E000000A0501150026FF0075080904A1010991
:1000F00001A1000930093195028182C0A1000932B5
:10010000093395028182C0093409350936093795CA
:10011000048182C011241FBECFE5D4E0DEBFCDBF75
:1001200010E0A0E6B0E0E2E4F8E002C005900D9235
:10013000A436B107D9F710E0A4E6B0E001C01D92E3
:10014000A43BB107E1F717D37AC35ACF85B78260D2
:1001500085BF8BB780648BBF8BE480937A008AE580
:100160008093790008951F93CF93DF9390918A0035
:10017000935097FDAFC020918700809186008D320B
:1001800009F0A6C0983009F0A3C0CCE0D0E0C21BB3
:10019000D109C257DF4F83EC80936E008AE58093CC
:1001A0006000109264008881807621F0CE01C0D278
:1001B000282F85C09A81109277008981882321F4A5
:1001C0001092780022E075C0853019F490938B006E
:1001D0006FC0863009F058C08B81813041F48EEABF
:1001E00090E0909389008093880022E149C082309A
:1001F00041F480EC90E0909389008093880022E2A3
:100200003FC0833041F5992341F486E290E090931A
:1002100089008093880024E033C0913041F48AE261
:1002200090E0909389008093880024E229C0923066
:1002300041F48EE490E0909389008093880024E359
:100240001FC09330E1F482E890E09093890080939E
:1002500088002CE215C0813241F482ED90E0909349
:1002600089008093880029E00BC0823241F482EE3D
:1002700090E0909389008093880022E301C020E001
:1002800080E4809364001BC0883021F421E08DE875
:1002900090E011C0893019F490938D0009C08A3024
:1002A00011F421E006C08B3019F48BE480937A00BE
:1002B00020E087E790E090938900809388008F8109
:1002C000882321F48E81821708F4282F209361005F
:1002D00010928A008091600084FF49C08091610083
:1002E0008F3F09F444C0182F893008F018E0811BB3
:1002F0008093610080916E0098E8892780936E005A
:10030000112341F12091880030918900809164008F
:1003100086FF0DC0AFE6B0E080E090E0F901E80FA5
:10032000F91FE491ED9301961817C1F708C0912FBA
:10033000D901EFE6F0E08D9181939150E1F71150F2
:10034000812F90E01F5F0196820F931F9093890089
:10035000809388008FE690E0612F4ED0612F6C5F14
:100360006C3019F08FEF809361006093600094E12E
:1003700080B3847131F49150D9F710928B001092B0
:100380008500DF91CF911F9108951F93DC01162FF7
:100390008091790084FF07C080917A0098E88927CE
:1003A00080937A0003C08AE580937900912FEBE770
:1003B000F0E08D91819391501916DCF38BE790E07A
:1003C000612F1AD01C5F109379001F910895A82FF8
:1003D000B92F80E090E041E050EA609530E009C03C
:1003E0002D9182279795879510F084279527305E69
:1003F000C8F36F5FA8F30895EADF8D939D93089586
:10040000CF93CFB7CF93C395849BE9F7849B09C063
:10041000849B07C0849B05C0849B03C0849B01C050
:10042000A3C0DF93C0918700DD27C257DF4F849BB5
:1004300002C0DF91EBCF2F930F931F9300B32FEFE9
:1004400004FB20F94F933F9310B34FEF012704FBB8
:1004500021F93BE031C04E7F012F10B3216028C04D
:10046000102F4D7F2260000000B329C04B7F246015
:10047000012F000010B32BC010B3477F28602AC0A3
:100480004F7E00B320612CC04F7D10B320622FC07F
:100490004F7B00B3206432C0422700B349934FEF33
:1004A0000000102714FB20F910B31471C9F1297F43
:1004B00091F2012704FB21F900B3237F89F2315027
:1004C00058F1102714FB22F910B3277E79F2012787
:1004D00004FB23F92F7C81F200B3102714FB24F9CD
:1004E0002F7971F200C010B3012704FB25F92F7397
:1004F00059F200C000B3102714FB26F9223040F255
:1005000000C010B3012704FB27F9243028F64F77E9
:10051000206810B30000F9CF10E41ABF002719C0FB
:100520003B503195C31BD04010E41ABF0881033CF7
:10053000F9F00B34E9F0209185001981110F1213A5
:10054000EDCF4A81441F093641F10D3211F0013ED1
:1005500029F700938C003F914F911F910F912F919C
:10056000DF91CAB7C6FD4FCFCF91CFBFCF911895BE
:1005700020918C00222379F310918A00112369F5D0
:1005800034306AF130938A002093860010918700FE
:100590003BE0311B3093870022C000918A0001307C
:1005A000E4F40AE54F7049F43091600034FD19C05D
:1005B00000936000CEE6D0E018C03091790034FDA1
:1005C00010C000937900CAE7D0E00FC02795A8F4C7
:1005D0005150A9F4220F0000F9CF4AE503C042EDC3
:1005E00001C0432FC4E1D0E032E011B31461949A0A
:1005F00011BB02B320E414E15F93012756E002BB74
:10060000279520F4515021F4220FF9CF012756E00D
:1006100000003B5A02BBD0F2279528F4515029F430
:10062000220F0000F9CF012756E0279502BB20F4E6
:10063000515021F4220FF9CF012756E0299133239D
:1006400002BB21F60B7E10918B00110FC651D040DA
:1006500002BB11F01093850010E41ABF006111B3C2
:100660001B7E402F4B7E5F9100C000C002BB11BBC0
:1006700042BB71CF1F920F920FB60F9211248F932E
:100680008FEF809362008F910F900FBE0F901F909D
:1006900018951F920F920FB60F9211242F933F932C
:1006A0008F93EF93FF932CB53DB51DBC1CBC80917F
:1006B000620087FD0FC08091620088305CF4E09199
:1006C0006200FF27E7FDF095EE0FFF1FEC55FF4F8F
:1006D00031832083809162008F5F80936200FF915D
:1006E000EF918F913F912F910F900FBE0F901F9020
:1006F000189581E48EBD84E289BF0895FC01EE0F58
:10070000FF1FEC55FF4F808191812EE2803E9207C2
:1007100010F480EE9EE2805E9E426DE270E07BD03F
:10072000CB016F3F710519F010F08FEF90E0089545
:10073000FC01808180768032E1F48181813041F456
:1007400085E690E0909389008093880088E0089582
:10075000823041F48DE690E0909389008093880088
:1007600081E008958A3029F4838180936D0080E0D0
:10077000089580E00895CF92DF92FF920F931F9328
:10078000CF93DF932EE088E190E00FB6F894A89520
:1007900081BD0FBE21BDADDFD9DC8C9A20E048EBD6
:1007A0005BE004C0A895CA010197F1F72150D1F789
:1007B0008C9881E48EBD84E289BF7894FF2480E325
:1007C000C82E85E7D82E02C0FF24F394A895CBDC71
:1007D00005E610E0C0E0D0E0CE0190DF982FF801F0
:1007E0008081891719F09083FF24F39421960F5F7D
:1007F0001F4FC830D10581F7FF2041F38091790068
:1008000084FFE2CF85E690E068E0BFDDC601019796
:10081000F1F7FF24DBCFAA1BBB1B51E107C0AA1FC6
:10082000BB1FA617B70710F0A61BB70B881F991F91
:100830005A95A9F780959095BC01CD010895F8943B
:02084000FFCFE8
:040842005AFFFF005A
:00000001FF
