:1000000089C0FFC1A2C0A1C0A0C055C334C39DC058
:100010009CC09BC09AC099C098C097C096C095C01C
:1000200094C093C092C004030904240374006800C0
:100030006F006D006100730070006600650069006C
:100040006600650072002E006E00650074003403C7
:10005000500050004D0032005500530042002D006A
:10006000740068006F006D0061007300700066002E
:10007000650069006600650072002E006E00650074
:1000800074002C03740068006F006D006100730041
:1000900070006600650069006600650072002E0051
:1000A0006E00650074003A0030003000310012012B
:1000B000100100000008C016DB2700010102030147
:1000C00009022200010100800A0904000001030066
:1000D0000000092101010001223200070581030807
:1000E000000A0501150026FF0075080904A1010991
:1000F00001A1000930093195028182C0A1000932B5
:10010000093395028182C0093409350936093795CA
:10011000048182C011241FBECFE5D4E0DEBFCDBF75
:1001200010E0A0E6B0E0E4ECF8E002C005900D922B
:10013000A436B107D9F710E0A4E6B0E001C01D92E3
:10014000A73BB107E1F75AD3BBC35ACF85B782604B
:1001500085BF8BB780648BBF8BE480937A008AE580
:100160008093790008951F93CF93DF9390918A0035
:10017000935097FDB0C020918700809186008D320A
:1001800009F0A7C0983009F0A4C0CCE0D0E0C21BB1
:10019000D109C257DF4F83EC80936E008AE58093CC
:1001A0006000109264008881807621F0CE0103D334
:1001B000282F86C09A81109277008981882321F4A4
:1001C0001092780022E076C0853019F490938B006D
:1001D00070C0863009F059C08B81813041F48EEABD
:1001E00090E0909389008093880022E14AC0823099
:1001F00041F480EC90E0909389008093880022E2A3
:1002000040C0833049F58A81882341F486E290E03A
:10021000909389008093880024E033C0813041F4BA
:100220008AE290E0909389008093880024E229C0BC
:10023000823041F48EE490E09093890080938800AE
:1002400024E31FC08330E1F482E890E090938900BA
:10025000809388002CE215C0813241F482ED90E059
:10026000909389008093880029E00BC0823241F48A
:1002700082EE90E0909389008093880022E301C091
:1002800020E080E4809364001BC0883021F421E0EA
:100290008DE890E011C0893019F490938D0009C069
:1002A0008A3011F421E006C08B3019F48BE480937E
:1002B0007A0020E087E790E090938900809388009F
:1002C0008F81882321F48E81821708F4282F2093B0
:1002D000610010928A008091600084FF49C0809183
:1002E00061008F3F09F444C0182F893008F018E0EE
:1002F000811B8093610080916E0098E8892780932C
:100300006E00112341F12091880030918900809185
:10031000640086FF0DC0AFE6B0E080E090E0F90138
:10032000E80FF91FE491ED9301961817C1F708C083
:10033000912FD901EFE6F0E08D9181939150E1F793
:100340001150812F90E01F5F0196820F931F9093B1
:100350008900809388008FE690E0612F4ED0612F56
:100360006C5F6C3019F08FEF8093610060936000D8
:1003700094E186B3837031F49150D9F710928B00D9
:1003800010928500DF91CF911F9108951F93DC019A
:10039000162F8091790084FF07C080917A0098E839
:1003A000892780937A0003C08AE580937900912F92
:1003B000EBE7F0E08D91819391501916DCF38BE718
:1003C00090E0612F1AD01C5F109379001F9108955F
:1003D000A82FB92F80E090E041E050EA609530E02E
:1003E00009C02D9182279795879510F0842795272E
:1003F000305EC8F36F5FA8F30895EADF8D939D9395
:100400000895CF93CFB7CF93C395B09BE9F7B09B37
:1004100009C0B09B07C0B09B05C0B09B03C0B09B98
:1004200001C0A3C0DF93C0918700DD27C257DF4F13
:10043000B09B02C0DF91EBCF2F930F931F9306B3B6
:100440002FEF00FB20F94F933F9316B34FEF012797
:1004500000FB21F93BE031C04E7F012F16B3216034
:1004600028C0102F4D7F2260000006B329C04B7FAB
:100470002460012F000016B32BC016B3477F2860FD
:100480002AC04F7E06B320612CC04F7D16B3206278
:100490002FC04F7B06B3206432C0422706B3499376
:1004A0004FEF0000102710FB20F916B31370C9F1AD
:1004B000297F91F2012700FB21F906B3237F89F2FE
:1004C000315058F1102710FB22F916B3277E79F22C
:1004D000012700FB23F92F7C81F206B3102710FBC4
:1004E00024F92F7971F200C016B3012700FB25F91A
:1004F0002F7359F200C006B3102710FB26F92230E3
:1005000040F200C016B3012700FB27F9243028F67B
:100510004F77206816B30000F9CF10E41ABF002708
:1005200019C03B503195C31BD04010E41ABF08815D
:10053000033CF9F00B34E9F0209185001981110F8B
:100540001213EDCF4A81441F093641F10D3211F0EB
:10055000013E29F700938C003F914F911F910F911D
:100560002F91DF91CAB7C6FD4FCFCF91CFBFCF91AB
:10057000189520918C00222379F310918A00112381
:1005800069F534306AF130938A0020938600109127
:1005900087003BE0311B3093870022C000918A0026
:1005A0000130E4F40AE54F7049F43091600034FD05
:1005B00019C000936000CEE6D0E018C030917900F9
:1005C00034FD10C000937900CAE7D0E00FC0279532
:1005D000A8F45150A9F4220F0000F9CF4AE503C056
:1005E00042ED01C0432FC4E1D0E032E017B3136005
:1005F000C09A17BB08B320E413E05F93012756E0CD
:1006000008BB279520F4515021F4220FF9CF012780
:1006100056E000003B5A08BBD0F2279528F4515011
:1006200029F4220F0000F9CF012756E0279508BBD7
:1006300020F4515021F4220FF9CF012756E02991DF
:10064000332308BB21F60C7F10918B00110FC6518C
:10065000D04008BB11F01093850010E41ABF016070
:1006600017B31C7F402F4C7F5F9100C000C008BBB8
:1006700017BB48BB71CF1F920F920FB60F92112478
:100680002F938F939F9380916200909163008F5F6F
:100690009F4F19F081E08093B6008FEF9FEF90930A
:1006A0006300809362009F918F912F910F900FBEF6
:1006B0000F901F9018951F920F920FB60F92112452
:1006C0002F933F938F939F93EF93FF9326B537B567
:1006D000205633473BBD2ABD205A3C488091B40088
:1006E0009091B5008091B4009091B500281B390B12
:1006F00086B597B59093B5008093B4008091620061
:100700009091630097FD10C080916200909163000A
:10071000089754F4E0916200F0916300EE0FFF1F20
:10072000EC55FF4F318320838091620090916300EC
:100730000196909363008093620085B392E08927CD
:1007400085BBFF91EF919F918F913F912F910F90DA
:100750000FBE0F901F90189581E08EBD8EB58068FA
:100760008EBD8EB580648EBD429A469A80E389BF65
:100770001092B6008FEF9FEF90936300809362001A
:100780000895FC01EE0FFF1FEC55FF4F8081918112
:100790002EE2803E920710F480EE9EE2805E9E4242
:1007A0006FE270E079D0CB016F3F710519F010F066
:1007B0008FEF90E00895FC01808180768032E1F433
:1007C0008181813041F485E690E0909389008093A7
:1007D000880088E00895823041F48DE690E090939F
:1007E00089008093880081E008958A3029F483810C
:1007F00080936D0080E0089580E00895FF920F934C
:100800001F93CF93DF932EE088E190E00FB6F8942A
:10081000A89581BD0FBE21BD9FDF98DCB89A20E06E
:1008200048EB5BE004C0A895CA010197F1F721509D
:10083000D1F7B89884B3836084BB789481E08093C7
:10084000B60028C0FF24F394A8958DDC8091B600F3
:100850008823D1F31092B60005E610E0C0E0D0E0A6
:10086000CE018FDF982FF8018081891719F09083CE
:10087000FF24F39421960F5F1F4FC830D10581F7F5
:10088000FF2011F38091790084FFDCCF85E690E0B2
:1008900068E07CDDFF24D8CFAA1BBB1B51E107C059
:1008A000AA1FBB1FA617B70710F0A61BB70B881F00
:1008B000991F5A95A9F780959095BC01CD0108958F
:0408C000F894FFCFDA
:0408C4005AFFFFFFD9
:00000001FF
